{"abi":[{"type":"constructor","inputs":[{"name":"_entryPoint","type":"address","internalType":"contract IEntryPoint"},{"name":"_token","type":"address","internalType":"contract IERC20"},{"name":"_tokenPerEth","type":"uint256","internalType":"uint256"},{"name":"_owner","type":"address","internalType":"address"}],"stateMutability":"nonpayable"},{"type":"receive","stateMutability":"payable"},{"type":"function","name":"addStake","inputs":[{"name":"unstakeDelaySec","type":"uint32","internalType":"uint32"}],"outputs":[],"stateMutability":"payable"},{"type":"function","name":"deposit","inputs":[],"outputs":[],"stateMutability":"payable"},{"type":"function","name":"entryPoint","inputs":[],"outputs":[{"name":"","type":"address","internalType":"contract IEntryPoint"}],"stateMutability":"view"},{"type":"function","name":"ethToToken","inputs":[{"name":"ethAmount","type":"uint256","internalType":"uint256"}],"outputs":[{"name":"","type":"uint256","internalType":"uint256"}],"stateMutability":"view"},{"type":"function","name":"getDeposit","inputs":[],"outputs":[{"name":"","type":"uint256","internalType":"uint256"}],"stateMutability":"view"},{"type":"function","name":"markupBps","inputs":[],"outputs":[{"name":"","type":"uint256","internalType":"uint256"}],"stateMutability":"view"},{"type":"function","name":"owner","inputs":[],"outputs":[{"name":"","type":"address","internalType":"address"}],"stateMutability":"view"},{"type":"function","name":"postOp","inputs":[{"name":"mode","type":"uint8","internalType":"enum PostOpMode"},{"name":"context","type":"bytes","internalType":"bytes"},{"name":"actualGasCost","type":"uint256","internalType":"uint256"},{"name":"actualUserOpFeePerGas","type":"uint256","internalType":"uint256"}],"outputs":[],"stateMutability":"nonpayable"},{"type":"function","name":"postOpGasOverhead","inputs":[],"outputs":[{"name":"","type":"uint256","internalType":"uint256"}],"stateMutability":"view"},{"type":"function","name":"renounceOwnership","inputs":[],"outputs":[],"stateMutability":"nonpayable"},{"type":"function","name":"setMarkup","inputs":[{"name":"_markupBps","type":"uint256","internalType":"uint256"}],"outputs":[],"stateMutability":"nonpayable"},{"type":"function","name":"setPostOpGasOverhead","inputs":[{"name":"_overhead","type":"uint256","internalType":"uint256"}],"outputs":[],"stateMutability":"nonpayable"},{"type":"function","name":"setPrice","inputs":[{"name":"_tokenPerEth","type":"uint256","internalType":"uint256"}],"outputs":[],"stateMutability":"nonpayable"},{"type":"function","name":"token","inputs":[],"outputs":[{"name":"","type":"address","internalType":"contract IERC20"}],"stateMutability":"view"},{"type":"function","name":"tokenPerEth","inputs":[],"outputs":[{"name":"","type":"uint256","internalType":"uint256"}],"stateMutability":"view"},{"type":"function","name":"transferOwnership","inputs":[{"name":"newOwner","type":"address","internalType":"address"}],"outputs":[],"stateMutability":"nonpayable"},{"type":"function","name":"unlockStake","inputs":[],"outputs":[],"stateMutability":"nonpayable"},{"type":"function","name":"validatePaymasterUserOp","inputs":[{"name":"userOp","type":"tuple","internalType":"struct PackedUserOperation","components":[{"name":"sender","type":"address","internalType":"address"},{"name":"nonce","type":"uint256","internalType":"uint256"},{"name":"initCode","type":"bytes","internalType":"bytes"},{"name":"callData","type":"bytes","internalType":"bytes"},{"name":"accountGasLimits","type":"bytes32","internalType":"bytes32"},{"name":"preVerificationGas","type":"uint256","internalType":"uint256"},{"name":"gasFees","type":"bytes32","internalType":"bytes32"},{"name":"paymasterAndData","type":"bytes","internalType":"bytes"},{"name":"signature","type":"bytes","internalType":"bytes"}]},{"name":"","type":"bytes32","internalType":"bytes32"},{"name":"maxCost","type":"uint256","internalType":"uint256"}],"outputs":[{"name":"context","type":"bytes","internalType":"bytes"},{"name":"validationData","type":"uint256","internalType":"uint256"}],"stateMutability":"nonpayable"},{"type":"function","name":"withdrawDeposit","inputs":[{"name":"to","type":"address","internalType":"address payable"},{"name":"amount","type":"uint256","internalType":"uint256"}],"outputs":[],"stateMutability":"nonpayable"},{"type":"function","name":"withdrawEth","inputs":[{"name":"to","type":"address","internalType":"address payable"},{"name":"amount","type":"uint256","internalType":"uint256"}],"outputs":[],"stateMutability":"nonpayable"},{"type":"function","name":"withdrawStake","inputs":[{"name":"to","type":"address","internalType":"address payable"}],"outputs":[],"stateMutability":"nonpayable"},{"type":"function","name":"withdrawToken","inputs":[{"name":"to","type":"address","internalType":"address"},{"name":"amount","type":"uint256","internalType":"uint256"}],"outputs":[],"stateMutability":"nonpayable"},{"type":"event","name":"GasPayment","inputs":[{"name":"sender","type":"address","indexed":true,"internalType":"address"},{"name":"tonAmount","type":"uint256","indexed":false,"internalType":"uint256"},{"name":"ethCost","type":"uint256","indexed":false,"internalType":"uint256"}],"anonymous":false},{"type":"event","name":"MarkupUpdated","inputs":[{"name":"markupBps","type":"uint256","indexed":false,"internalType":"uint256"}],"anonymous":false},{"type":"event","name":"OwnershipTransferred","inputs":[{"name":"previousOwner","type":"address","indexed":true,"internalType":"address"},{"name":"newOwner","type":"address","indexed":true,"internalType":"address"}],"anonymous":false},{"type":"event","name":"PriceUpdated","inputs":[{"name":"tokenPerEth","type":"uint256","indexed":false,"internalType":"uint256"}],"anonymous":false},{"type":"error","name":"OwnableInvalidOwner","inputs":[{"name":"owner","type":"address","internalType":"address"}]},{"type":"error","name":"OwnableUnauthorizedAccount","inputs":[{"name":"account","type":"address","internalType":"address"}]},{"type":"error","name":"SafeERC20FailedOperation","inputs":[{"name":"token","type":"address","internalType":"address"}]}],"bytecode":{"object":"0x60c060405234801561000f575f80fd5b506040516112a63803806112a683398101604081905261002e916100f4565b806001600160a01b03811661005c57604051631e4fbdf760e01b81525f600482015260240160405180910390fd5b6100658161008e565b50506001600160a01b03928316608052911660a052600155613a9860025561ea60600355610146565b5f80546001600160a01b038381166001600160a01b0319831681178455604051919092169283917f8be0079c531659141344cd1fd0a4f28419497f9722a3daafe3b4186f6b6457e09190a35050565b6001600160a01b03811681146100f1575f80fd5b50565b5f805f8060808587031215610107575f80fd5b8451610112816100dd565b6020860151909450610123816100dd565b60408601516060870151919450925061013b816100dd565b939692955090935050565b60805160a0516110f26101b45f395f81816103c1015281816105ef015281816107ba01526109c401525f81816102cd015281816104050152818161051f015281816106ff0152818161085f015281816109f901528181610a8e01528181610b020152610b9301526110f25ff3fe608060405260043610610134575f3560e01c80639e281a98116100a8578063d0e30db01161006d578063d0e30db014610336578063d87eeab01461033e578063e27a248914610353578063f2fde38b14610372578063fb79777d14610391578063fc0c546a146103b0575f80fd5b80639e281a981461029d578063b0d691fe146102bc578063bb9fe6bf146102ef578063c23a5cea14610303578063c399ec8814610322575f80fd5b8063715018a6116100f9578063715018a6146101dd5780637c627b21146101f15780637f07bfdc146102105780638b9789c91461022f5780638da5cb5b1461024e57806391b7f5ed1461027e575f80fd5b80630396cb601461013f5780630a084473146101545780631b9a91a41461017c57806352b7512c1461019b5780636ec5f681146101c8575f80fd5b3661013b57005b5f80fd5b61015261014d366004610df9565b6103e3565b005b34801561015f575f80fd5b5061016960015481565b6040519081526020015b60405180910390f35b348015610187575f80fd5b50610152610196366004610e2f565b61046a565b3480156101a6575f80fd5b506101ba6101b5366004610e59565b610511565b604051610173929190610ea8565b3480156101d3575f80fd5b5061016960035481565b3480156101e8575f80fd5b506101526106e1565b3480156101fc575f80fd5b5061015261020b366004610ee4565b6106f4565b34801561021b575f80fd5b5061015261022a366004610e2f565b610831565b34801561023a575f80fd5b50610152610249366004610f78565b6108a0565b348015610259575f80fd5b505f546001600160a01b03165b6040516001600160a01b039091168152602001610173565b348015610289575f80fd5b50610152610298366004610f78565b61092f565b3480156102a8575f80fd5b506101526102b7366004610e2f565b6109af565b3480156102c7575f80fd5b506102667f000000000000000000000000000000000000000000000000000000000000000081565b3480156102fa575f80fd5b506101526109ef565b34801561030e575f80fd5b5061015261031d366004610f8f565b610a67565b34801561032d575f80fd5b50610169610ae1565b610152610b76565b348015610349575f80fd5b5061016960025481565b34801561035e575f80fd5b5061016961036d366004610f78565b610bde565b34801561037d575f80fd5b5061015261038c366004610f8f565b610bee565b34801561039c575f80fd5b506101526103ab366004610f78565b610c2b565b3480156103bb575f80fd5b506102667f000000000000000000000000000000000000000000000000000000000000000081565b6103eb610c38565b604051621cb65b60e51b815263ffffffff821660048201527f00000000000000000000000000000000000000000000000000000000000000006001600160a01b031690630396cb609034906024015f604051808303818588803b158015610450575f80fd5b505af1158015610462573d5f803e3d5ffd5b505050505050565b610472610c38565b5f826001600160a01b0316826040515f6040518083038185875af1925050503d805f81146104bb576040519150601f19603f3d011682016040523d82523d5f602084013e6104c0565b606091505b505090508061050c5760405162461bcd60e51b8152602060048201526013602482015272115512081d1c985b9cd9995c8819985a5b1959606a1b60448201526064015b60405180910390fd5b505050565b60605f336001600160a01b037f0000000000000000000000000000000000000000000000000000000000000000161461057d5760405162461bcd60e51b815260206004820152600e60248201526d139bdd08115b9d1c9e541bda5b9d60921b6044820152606401610503565b6003546fffffffffffffffffffffffffffffffff60c087013516905f906105a5908390610fbe565b6105af9086610fd5565b90505f6105bb82610c64565b90505f6105cb60208a018a610f8f565b6040516370a0823160e01b81526001600160a01b03808316600483015291925083917f000000000000000000000000000000000000000000000000000000000000000016906370a0823190602401602060405180830381865afa158015610634573d5f803e3d5ffd5b505050506040513d601f19601f820116820180604052508101906106589190610fe8565b10156106a65760405162461bcd60e51b815260206004820152601e60248201527f544f4e5061796d61737465723a20696e73756666696369656e7420544f4e00006044820152606401610503565b604080516001600160a01b038316602082015290810183905260600160408051601f19818403018152919052995f9950975050505050505050565b6106e9610c38565b6106f25f610c95565b565b336001600160a01b037f0000000000000000000000000000000000000000000000000000000000000000161461075d5760405162461bcd60e51b815260206004820152600e60248201526d139bdd08115b9d1c9e541bda5b9d60921b6044820152606401610503565b600285600281111561077157610771610fff565b1461082a575f61078384860186610e2f565b5090505f826003546107959190610fbe565b61079f9085610fd5565b90505f6107ab82610c64565b90506107e26001600160a01b037f000000000000000000000000000000000000000000000000000000000000000016843084610ce4565b60408051828152602081018490526001600160a01b038516917ff1badaa3c213d6926962a5f8e5567a267454e2d561b7faeaafc8e71e2e216b93910160405180910390a25050505b5050505050565b610839610c38565b60405163040b850f60e31b81526001600160a01b038381166004830152602482018390527f0000000000000000000000000000000000000000000000000000000000000000169063205c2878906044015f604051808303815f87803b158015610450575f80fd5b6108a8610c38565b6127108110156108f35760405162461bcd60e51b81526020600482015260166024820152754d61726b7570206d757374206265203e3d203130302560501b6044820152606401610503565b60028190556040518181527f21c94f1a6611b9c3c7e0e2a195d1eaf14e60966d368c3d7f85b1609edf8f08c3906020015b60405180910390a150565b610937610c38565b5f811161097a5760405162461bcd60e51b815260206004820152601160248201527005072696365206d757374206265203e203607c1b6044820152606401610503565b60018190556040518181527f66cbca4f3c64fecf1dcb9ce094abcf7f68c3450a1d4e3a8e917dd621edb4ebe090602001610924565b6109b7610c38565b6109eb6001600160a01b037f0000000000000000000000000000000000000000000000000000000000000000168383610d4b565b5050565b6109f7610c38565b7f00000000000000000000000000000000000000000000000000000000000000006001600160a01b031663bb9fe6bf6040518163ffffffff1660e01b81526004015f604051808303815f87803b158015610a4f575f80fd5b505af1158015610a61573d5f803e3d5ffd5b50505050565b610a6f610c38565b60405163611d2e7560e11b81526001600160a01b0382811660048301527f0000000000000000000000000000000000000000000000000000000000000000169063c23a5cea906024015f604051808303815f87803b158015610acf575f80fd5b505af115801561082a573d5f803e3d5ffd5b604051632943e70960e11b81523060048201525f9081906001600160a01b037f00000000000000000000000000000000000000000000000000000000000000001690635287ce129060240160a060405180830381865afa158015610b47573d5f803e3d5ffd5b505050506040513d601f19601f82011682018060405250810190610b6b9190611013565b509295945050505050565b610b7e610c38565b60405163b760faf960e01b81523060048201527f00000000000000000000000000000000000000000000000000000000000000006001600160a01b03169063b760faf99034906024015f604051808303818588803b158015610acf575f80fd5b5f610be882610c64565b92915050565b610bf6610c38565b6001600160a01b038116610c1f57604051631e4fbdf760e01b81525f6004820152602401610503565b610c2881610c95565b50565b610c33610c38565b600355565b5f546001600160a01b031633146106f25760405163118cdaa760e01b8152336004820152602401610503565b5f69021e19e0c9bab240000060025460015484610c819190610fbe565b610c8b9190610fbe565b610be8919061109d565b5f80546001600160a01b038381166001600160a01b0319831681178455604051919092169283917f8be0079c531659141344cd1fd0a4f28419497f9722a3daafe3b4186f6b6457e09190a35050565b6040516001600160a01b038481166024830152838116604483015260648201839052610a619186918216906323b872dd906084015b604051602081830303815290604052915060e01b6020820180516001600160e01b038381831617835250505050610d7c565b6040516001600160a01b0383811660248301526044820183905261050c91859182169063a9059cbb90606401610d19565b5f8060205f8451602086015f885af180610d9b576040513d5f823e3d81fd5b50505f513d91508115610db2578060011415610dbf565b6001600160a01b0384163b155b15610a6157604051635274afe760e01b81526001600160a01b0385166004820152602401610503565b63ffffffff81168114610c28575f80fd5b5f60208284031215610e09575f80fd5b8135610e1481610de8565b9392505050565b6001600160a01b0381168114610c28575f80fd5b5f8060408385031215610e40575f80fd5b8235610e4b81610e1b565b946020939093013593505050565b5f805f60608486031215610e6b575f80fd5b833567ffffffffffffffff811115610e81575f80fd5b84016101208187031215610e93575f80fd5b95602085013595506040909401359392505050565b604081525f83518060408401528060208601606085015e5f606082850101526060601f19601f8301168401019150508260208301529392505050565b5f805f805f60808688031215610ef8575f80fd5b853560038110610f06575f80fd5b9450602086013567ffffffffffffffff811115610f21575f80fd5b8601601f81018813610f31575f80fd5b803567ffffffffffffffff811115610f47575f80fd5b886020828401011115610f58575f80fd5b959860209190910197509495604081013595606090910135945092505050565b5f60208284031215610f88575f80fd5b5035919050565b5f60208284031215610f9f575f80fd5b8135610e1481610e1b565b634e487b7160e01b5f52601160045260245ffd5b8082028115828204841417610be857610be8610faa565b80820180821115610be857610be8610faa565b5f60208284031215610ff8575f80fd5b5051919050565b634e487b7160e01b5f52602160045260245ffd5b5f805f805f60a08688031215611027575f80fd5b85516020870151909550801515811461103e575f80fd5b60408701519094506dffffffffffffffffffffffffffff81168114611061575f80fd5b606087015190935061107281610de8565b608087015190925067ffffffffffffffff8116811461108f575f80fd5b809150509295509295909350565b5f826110b757634e487b7160e01b5f52601260045260245ffd5b50049056fea26469706673582212204f900b090813a659d5d21533598ddc1961a1d829df77ca06a41d5d954b3c3c1264736f6c634300081a0033","linkReferences":{}},"methodIdentifiers":{"addStake(uint32)":"0396cb60","deposit()":"d0e30db0","entryPoint()":"b0d691fe","ethToToken(uint256)":"e27a2489","getDeposit()":"c399ec88","markupBps()":"d87eeab0","owner()":"8da5cb5b","postOp(uint8,bytes,uint256,uint256)":"7c627b21","postOpGasOverhead()":"6ec5f681","renounceOwnership()":"715018a6","setMarkup(uint256)":"8b9789c9","setPostOpGasOverhead(uint256)":"fb79777d","setPrice(uint256)":"91b7f5ed","token()":"fc0c546a","tokenPerEth()":"0a084473","transferOwnership(address)":"f2fde38b","unlockStake()":"bb9fe6bf","validatePaymasterUserOp((address,uint256,bytes,bytes,bytes32,uint256,bytes32,bytes,bytes),bytes32,uint256)":"52b7512c","withdrawDeposit(address,uint256)":"7f07bfdc","withdrawEth(address,uint256)":"1b9a91a4","withdrawStake(address)":"c23a5cea","withdrawToken(address,uint256)":"9e281a98"},"id":10}